:101100003F065B4F666D7D077F6F3140000A3C40B4
:1011100000023D400C00B012CE15B0129C14B0126B
:10112000F0150D120C120F120E125E4220007E807E
:10113000DF0089247E80100035247E8223246E8285
:1011400010246E8308245E83D12082930A02CE206D
:1011500092430A02CB3C82930A02C82482430A02C9
:10116000C53C1C420A023C5005003E400600B0123D
:101170000615824E0A0282930A02B820B240060087
:101180000A02B43C1C420A021C533E400600B01244
:101190000615824E0A0282930A02A820B240060077
:1011A0000A02A43C82930A02A1241F420A021F835E
:1011B0000B241F8314241F831C241F8325241F83B7
:1011C0002D241F833624923C1C4202023C500A000C
:1011D0003E401800B0120615824E0202873C1C42A7
:1011E00002021C533E401800B0120615824E020245
:1011F0007D3C1C4204023C500A003E403C00B012C0
:101200000615824E0402723C1C4204021C533E40EE
:101210003C00B0120615824E0402683C1C420602D5
:101220003C500A003E403C00B0120615824E0602B9
:101230005D3C1C4206021C533E403C00B0120615A9
:10124000824E0602533C82930A0250241F420A0235
:101250001F830B241F8314241F831D241F83262414
:101260001F832F241F833824413C1C4202023C5020
:101270000E003E401800B0120615824E0202363CA7
:101280001C4202023C5017003E401800B0120615E6
:10129000824E02022B3C1C4204023C5032003E4073
:1012A0003C00B0120615824E0402203C1C4204028F
:1012B0003C503B003E403C00B0120615824E0402FA
:1012C000153C1C4206023C5032003E403C00B0122D
:1012D0000615824E06020A3C1C4206023C503B00A8
:1012E0003E403C00B0120615824E0602C243230067
:1012F0003E413F413C413D4100130A1282930A02A4
:1013000069200A430C3C0C43B012B615003C3F4028
:101310001F003F53FE2F3C43B012B6151A533A90AC
:10132000060053341C430E12C14A00003E41B01265
:10133000E015C24C31000F4A0F830B241F83152484
:101340001F831B241F8325241F832B241F833524E5
:10135000DA3F1C4202023E400A00B01206153E402F
:101360000A00B01206150C4ECF3F1C4202023E404E
:101370000A00B01206150C4EC73F1C4204023E4044
:101380000A00B01206153E400A00B01206150C4EB7
:10139000BB3F1C4204023E400A00B01206150C4E30
:1013A000B33F1C4206023E400A00B01206153E4002
:1013B0000A00B01206150C4EA73F1C4206023E4022
:1013C0000A00B01206150C4E9F3F3F4041003F53AC
:1013D000FE2F623C929300024B201E420A021E83A3
:1013E0000B241E8315241E831B241E8325241E8389
:1013F0002B241E8335243D3C1C4202023E400A0041
:10140000B01206153E400A00B01206150F4E313CD0
:101410001C4202023E400A00B01206150F4E293C43
:101420001C4204023E400A00B01206153E400A006B
:10143000B01206150F4E1D3C1C4204023E400A002D
:10144000B01206150F4E153C1C4206023E400A0023
:10145000B01206153E400A00B01206150F4E093CA8
:101460001C4206023E400A00B01206150F4E013C17
:101470003F431C435E420A027E53B012E015C24C49
:1014800031000C4FB012B615003C3F404B013F53AA
:10149000FE2F3C43B012B6153A413041B24017001E
:1014A0000202B2403B000402B2403700060282430F
:1014B000080282430A02924300024E43C24E2300B6
:1014C000C24E2200C24E31007E43C24E2500C24EA3
:1014D0002400C24E2100C24E2700C24E3200C24E2E
:1014E0001E00B240805A2001B24010006201B2409A
:1014F0000A007201B2401002600132D0F8000C43C1
:1015000030418C118E11091209430E9303343EE3CE
:101510001E5319D30C9303343CE31C5339E3B0122C
:101520009E1519B302243CE31C5329B302243EE365
:101530001E533941304192530602B2903C000602DC
:1015400012208243060292530402B2903C0004022D
:101550000A208243040292530202B290180002024F
:1015600002208243020230410D120C120F120E12A1
:101570001F4208021F53824F08023F90C8000638DE
:10158000B012361592E3000282430802B012FA123A
:101590003E413F413C413D4100137CF37EF30F4E01
:1015A0000D4C0E431C430D5D0E6E0E9F01280E8FD9
:1015B0000C6CF92B30410F4C3F900A00032C5E4C11
:1015C0000011013C4E437EE3C24E1D0030410F4CE2
:1015D0000F5D033CCC4300001C530C9FFB233041A8
:1015E0004E9303240C5C5E83FD2330413040F415A0
:0615F0003040EC15FF3F46
:02FFE4002211E8
:02FFF200681590
:02FFFE000A11E6
:00110A01E4
:00000001FF
